:020000040800F2
:10000000D8620020E1010008C10A00080B0A0008BC
:10001000BD0A000879020008230F00080000000054
:10002000000000000000000000000000FF0A0008BF
:100030007D02000800000000FD0A0008F901000828
:10004000FB010008FB010008FB010008FB010008A0
:10005000FB010008FB010008FB010008FB01000890
:10006000FB010008FB010008FB010008FB01000880
:10007000FB010008FB010008FB010008FB01000870
:10008000FB010008FB010008FB010008FB01000860
:10009000FB010008FB010008FB010008FB01000850
:1000A000FB010008FB010008FB010008FB01000840
:1000B000FB010008C10B0008FB010008FB01000860
:1000C000FB010008FB010008FB010008FB01000820
:1000D000FB010008FB010008FB010008FB01000810
:1000E000FB010008FB010008FB010008FB01000800
:1000F000FB010008FB010008FB010008FB010008F0
:10010000FB010008FB010008C50C0008FB0100080A
:10011000FB010008FB010008FB010008FB010008CF
:10012000FB010008FB010008FB010008FB010008BF
:10013000FB010008FB010008FB010008FB010008AF
:10014000FB010008FB010008FB010008FB0100089F
:10015000FB010008FB010008FB010008FB0100088F
:10016000FB010008FB010008FB010008FB0100087F
:10017000FB010008FB010008FB0100080000000073
:10018000FB010008FB010008FB010008FB0100085F
:10019000FB010008FB010008FB010008FB0100084F
:1001A000FB010008FB010008FB010008FB0100083F
:1001B000FB010008FB010008FB010008FB0100082F
:1001C000FB010008FB010008DFF810D000F042F846
:1001D0000048004735110008AFF30080D8620020C6
:1001E0000648804706480047FEE7FEE7FEE7FEE7D1
:1001F000FEE7FEE7FEE7FEE7FEE7FEE7010B00088D
:10020000C9010008D2B201E000F8012B491EFBD25F
:1002100070470022F6E710B513460A460446194611
:10022000FFF7F0FF204610BD30B50B460146002019
:100230002022012409E021FA02F59D4205D303FAA8
:1002400002F5491B04FA02F52844151EA2F1010229
:10025000F1DC30BD064C074D06E0E06840F00103DC
:1002600094E8070098471034AC42F6D3FFF7B0FF8C
:100270007C1400089C14000800BFFEE770470000D3
:10028000F8B502460B46002100250024002000BFDF
:10029000E4E0012606FA01F51E6806EA0504AC4210
:1002A00071D15E68022E02D05E68122E13D1CF0883
:1002B00002F1200656F827004E07F70E0F26BE4023
:1002C000B0434F07FF0E1E69BE403043CF0802F116
:1002D000200646F8270010684F000326BE40B043B2
:1002E0001E7906F003064F00BE40304310605E6882
:1002F000012E08D05E68022E05D05E68112E02D055
:100300005E68122E13D190684F000326BE40B043A2
:100310004F00DE68BE4030439060506801268E403A
:10032000B0431E79C6F300168E4030435060D0684B
:100330004F000326BE40B0434F009E68BE4030438E
:10034000D0605E6806F08056B6F1805FA8D100BF2D
:10035000444E366846F48046424F3E603E4636681C
:1003600006F48046009600BF00BF3F4E8F0856F847
:1003700027008E07370F0F26BE40B0433B4EB242D8
:1003800002D100262EE068E0394EB24201D10126AA
:1003900028E0384EB24201D1022623E0364EB24266
:1003A00001D103261EE0354EB24201D1042619E0E8
:1003B000334EB24201D1052614E0324EB24201D191
:1003C00006260FE0304EB24201D107260AE02F4E3A
:1003D000B24201D1082605E02D4EB24201D10926D4
:1003E00000E00A268F073F0FBE4030431E4E8F08A5
:1003F00046F82700274E3068A0435E6806F4803632
:10040000B6F5803F00D12043224E3060361D306863
:10041000A0435E6806F40036B6F5003F00D12043E5
:100420001C4E361D3060361D3068A0435E6806F4F1
:100430008016B6F5801F00D12043164E0836306076
:10044000361D3068A0435E6806F40016B6F5001F3E
:1004500000D120430F4E0C363060491C1029FFF4A8
:1004600018AFF8BD4438024008380140000002408F
:100470000004024000080240000C0240001002404C
:100480000014024000180240001C024000200240FC
:1004900000240240003C014000BF00F01F02012187
:1004A00091404209920002F1E022C2F8001100BF1F
:1004B00070472DE9F05F80460D461646002700F094
:1004C00001FB074639462A46334601F00700C0F1D2
:1004D000070ABAF1040F02D94FF0040A01E0C0F193
:1004E000070AD14600F1040ABAF1070F02D24FF011
:1004F000000A01E0A0F1030AD4464FF0010A0AFA0B
:1005000009FAAAF1010A0AEA020A0AFA0CFA4FF0F9
:10051000010B0BFA0CFBABF1010B0BEA030B4AEAE4
:100520000B042146404600F0D5FABDE8F09F704725
:10053000704710B504460CB9012010BD94F839007D
:1005400010B9204600F00CF8022084F83900211D73
:10055000206800F0BFFB012084F839000020ECE7A0
:10056000704701460868C06840F001000A68D06022
:100570000868006840F001000A68106000207047B9
:1005800010B504463348007800F0800000285FD1A1
:100590003048007800F04000D8B12E48007840F094
:1005A00080002C49087000212B4800F003FA2B49E9
:1005B000086029480068006A4FF6F571084026492E
:1005C0000968086224480068006A234909680862CB
:1005D0003EE000201F490870204908601D4800784F
:1005E00040F040001B49087000BF1B480068006ACB
:1005F00041F21111084068B917480068006A891073
:10060000084038B914480068006820F00100124919
:100610000968086000BF00200F49096848620E4859
:100620000068006A4FF6F57108400B4909680862D6
:1006300009480068006A40F002000749096808623A
:1006400005480068006840F0010003490968086037
:1006500010BD000004000020885E0020080000207B
:100660002DE9F04104460D46164600BF94F83800C7
:10067000012802D10220BDE8F081012084F8380071
:1006800000BF022084F8390096B9EB68D5E9001262
:10069000206800F09FFB2068806920F00C00216832
:1006A000886120688069A9680843216888613DE005
:1006B000042E13D1EB68D5E90012206800F0D4FBBA
:1006C0002068806920F44060216888612068806922
:1006D000A96840EA01202168886127E0082E12D12C
:1006E000EB68D5E90012206800F0DDFB2068C069E6
:1006F00020F00C002168C8612068C069A96808431F
:100700002168C86112E0EB68D5E90012206800F0AA
:10071000E8FB2068C06920F440602168C861206857
:10072000C069A96840EA01202168C861012084F8F5
:10073000390000BF002084F8380000BF00BF9AE7EE
:1007400030B504460D4635B1042D0BD0082D10D020
:100750000C2D1CD114E02068C06840F00200216814
:10076000C86015E02068C06840F004002168C860D7
:100770000EE02068C06840F008002168C86007E00B
:100780002068C06840F010002168C86000E000BF29
:1007900000BF01222946206800F00EFB2068006897
:1007A00040F0010021680860002030BD10B504460B
:1007B00020680069C0F34000D8B12068C068C0F369
:1007C0004000B0B16FF0020021680861012020767E
:1007D0002068806900F0030018B12046FFF7D0FEC2
:1007E00005E0204600F0BEF8204600F0BCF80020EE
:1007F000207620680069C0F38000D8B12068C06806
:10080000C0F38000B0B16FF00400216808610220DD
:1008100020762068806900F4407018B12046FFF708
:10082000AFFE05E0204600F09DF8204600F09BF862
:100830000020207620680069C0F3C000D8B120688D
:10084000C068C0F3C000B0B16FF008002168086153
:10085000042020762068C06900F0030018B120460B
:10086000FFF78EFE05E0204600F07CF8204600F001
:100870007AF80020207620680069C0F30010D8B113
:100880002068C068C0F30010B0B16FF0100021689C
:100890000861082020762068C06900F4407018B113
:1008A0002046FFF76DFE05E0204600F05BF820468D
:1008B00000F059F8002020762068006900F001005F
:1008C00058B12068C06800F0010030B16FF001003D
:1008D00021680861204600F047F820680069C0F3ED
:1008E000C01058B12068C068C0F3C01030B16FF0BC
:1008F0008000216808612046FFF719FE2068006922
:10090000C0F3002058B12068C068C0F3C01030B1F7
:100910006FF08000216808612046FFF708FE20681C
:100920000069C0F3801058B12068C068C0F380101F
:1009300030B16FF0400021680861204600F064F893
:1009400020680069C0F3401058B12068C068C0F347
:10095000401030B16FF02000216808612046FFF799
:10096000E7FD10BD704770471049097801F080011C
:10097000D1B90E49097801F04001A9B10B490978B4
:1009800001F03F013F290AD10849097841F080016F
:10099000064A11704FF0FF31054A116004E0034927
:1009A0000978491C014A11707047000004000020BA
:1009B000080000200246002300BF92F838000128FA
:1009C00001D102207047012082F8380000BF31B108
:1009D000042907D0082908D00C290CD108E0106898
:1009E000436B09E01068836B06E01068C36B03E09B
:1009F0001068036C00E000BF00BF00BF002082F859
:100A0000380000BF1846DDE7704700BFFEE7000072
:100A100010B500F0E9F84FF416701D4908604FF466
:100A200048701C4908604FF47A701B4908606420C4
:100A30001A4908601A49086015480068174909688A
:100A40000844184908601248006815490968401AA6
:100A5000154908600F48006810490968084413499F
:100A600008600C4800680E490968401A104908607F
:100A7000094800680949096808440E4908600648A1
:100A8000006807490968401A0B49086010BD00005A
:100A90001000002014000020180000201C0000207E
:100AA0002000002024000020280000202C0000202E
:100AB00034000020300000203800002000BFFEE796
:100AC0007047000002480068C0F302207047000031
:100AD0000CED00E010B5002807DA0A07140E054AED
:100AE00000F00F031B1FD45403E00A07130E024A41
:100AF000135410BD18ED00E000E400E070477047AB
:100B00001448006840F470001249086012480068F8
:100B100040F001001049086000200F4908310860CA
:100B20000D4800680D4908400B4908600C48091D34
:100B30000860081F006820F48020091F086000205A
:100B400005490C3108604FF00060024980390860A7
:100B50007047000088ED00E000380240FFFFF6FE1D
:100B60001030002408B500BF1348006840F00200B0
:100B7000114908600846006800F00200009000BFBC
:100B800000BF4FF6FF710D48C16041F61F400B4991
:100B900048600021094801618160FFF7CAFC0748ED
:100BA000FFF7DFFC002203211D20FFF782FC1D2040
:100BB000FFF772FC08BD000040380240385E00209C
:100BC00010B50648FFF7F2FD05480078012804D16A
:100BD00004480078401C0349087010BD385E0020AE
:100BE0000C0000200D00002008B500BF2F48006851
:100BF00040F008002D4908600846006800F0080031
:100C0000009000BF00BF00BF28481038006840F0C7
:100C100001002649103908600846006800F001000C
:100C2000009000BF00BF01202149086000204860FB
:100C3000022088600320C860022008611D48FFF779
:100C40001FFB1D481D4908604FF6FF711B48C1601E
:100C500047201A49486000211848016181604161BC
:100C6000FFF767FC1548FFF77CFC0020144908607B
:100C70000120486000208860C86000220F48FFF70C
:100C8000EFFC00210D48FFF75BFD0C480068C068D1
:100C900040F0010009490968C860002203213220A0
:100CA000FFF707FC3220FFF7F7FB08BD4038024092
:100CB000745E002000200240000C0040885E00208E
:100CC000C45E002010B50248FFF770FD10BD0000A3
:100CD000885E0020002202682C4B98420ED0B0F1B2
:100CE000804F0BD02A4B984208D02A4B984205D00F
:100CF000294B984202D0294B984201D1012300E0B0
:100D000000231BB122F070024B681A431F4B98421C
:100D100020D0B0F1804F1DD01D4B98421AD01D4BF2
:100D2000984217D01C4B984214D01C4B984211D0BB
:100D30001B4B98420ED01B4B98420BD01A4B98423B
:100D400008D01A4B984205D0194B984202D0194B43
:100D5000984201D1012300E000231BB122F440722C
:100D6000CB681A4302608B68C3620B688362074BCF
:100D7000984202D0094B984201D1012300E00023A0
:100D80000BB10B690363012343617047000001400D
:100D90000004004000080040000C00400004014036
:100DA000004001400044014000480140001800405C
:100DB000001C00400020004030B50023012404FA4C
:100DC00001F3046A9C430462046A02FA01F52C43AD
:100DD000046230BD70B50C46154600210022066A3B
:100DE00026F0010606628169026A184EB04214D0EC
:100DF000B0F1804F11D0164EB0420ED0154EB04219
:100E00000BD0154EB04208D0144EB04205D0144E4F
:100E1000B04202D0134EB04201D1012600E00026BC
:100E20001EB121F00301294301E041F0010121F04D
:100E3000F001F02606EA0316314322F00A0204F01C
:100E40000A0632438161026270BD00000000014069
:100E50000004004000080040000C00400004014075
:100E6000004001400018004070B50C4615460021B6
:100E70000022066A26F0100606628169026A21F4E1
:100E8000407141EA052121F470414FF4704606EAB1
:100E90000336314322F0A002A02606EA04163243AC
:100EA0008161026270BD70B50C46154600210022BA
:100EB000066A26F480760662C169026A21F003019F
:100EC000294321F0F001F02606EA0316314322F40B
:100ED00020624FF4206606EA04263243C1610262B2
:100EE00070BD70B50C46154600210022066A26F436
:100EF00080560662C169026A21F4407141EA052107
:100F000021F470414FF4704606EA0336314322F46F
:100F100020424FF4204606EA04363243C1610262A1
:100F200070BD00BFFEE700000FB4054B10B503A96C
:100F3000044A029800F018F810BC5DF814FB000099
:100F4000BD1000083C00002002E008C8121F08C1C4
:100F5000002AFAD170477047002001E001C1121F3A
:100F6000002AFBD1704700002DE9FF4F89B09B4656
:100F70000446002506E025280BD05A460B999047D9
:100F8000641C6D1C20780028F5D10DB02846BDE802
:100F9000F08F0027B8460122474900E0074314F8C4
:100FA000013F203B02FA03F00842F7D120782E28B7
:100FB00019D114F8010F47F004072A280ED06FF05A
:100FC0002F022078A0F1300109290CD808EB880104
:100FD00002EB410100EB0108641CF2E70A98641C73
:100FE00050F8048B0A9020780028CED0642808D0CE
:100FF000692806D075281ED05A460B9990476D1C5B
:1010000058E00A994FF00A0901C90A91002802DA4A
:1010100040422D2102E0390504D52B218DF8201006
:10102000012103E0F90704D02021F7E78A4608AE42
:101030000DE00021FAE70A994FF00A0901C90A9167
:10104000F7E74946FFF7F0F8303106F8011D0028B0
:10105000F7D1ADEB060000F12009780701D44FF07D
:101060000108C84502DDA8EB090000E00020804629
:10107000002706E008A85A46C05D0B9990476D1CF2
:101080007F1C5745F6DB04E030205A460B99904709
:101090006D1CB8F10001A8F10108F5DC05E016F8B7
:1010A000010B5A460B9990476D1CB9F10001A9F14B
:1010B0000109F4DC641C65E70928010038B5044621
:1010C0008DF8000069460320ABBE204638BD000005
:1010D00000200649097801F03F0000B100040449EE
:1010E000096808440021014A11707047040000207B
:1010F000080000200B490A680B49097802EB0141FE
:10110000642201FB02F00021084A1170054A1160B7
:10111000054A11700649096821F00201044A11606C
:1011200070470000240400400D0000200C00002047
:10113000403802401CB54FF000080026002700256B
:10114000A946FFF70FFDFFF763FC47A0FFF7ECFE92
:1011500089E000F0D5F80446B7B9ACB12DF81640D7
:10116000701CC6B2032E0FD10026BDF80200401C31
:10117000BDF80010401ABDF80410884201D10127C3
:1011800002E04448FFF7D0FE002F6CD042A0FFF7EA
:10119000CBFE002700F038F9BDF800501EE000F04B
:1011A000AFF80446AC4209D13F4801880088401C92
:1011B0003D4A10803D4820F811400DE064B1601BAD
:1011C00039490880084601880088401C364A10804A
:1011D000364820F811402546681C85B2BDF802004B
:1011E000401CA842DBDCFFF785FF31A0FFF79CFE27
:1011F00000202D490880BDF800501DE02B482A49E9
:10120000098830F81100A84207D009F101001FFA3F
:1012100080F937A0FFF788FE07E02448224A1288A9
:1012200030F8121035A0FFF77FFE1F480088401CE1
:101230001D490880681C85B2BDF80200401CA84208
:10124000DCDC08F101001FFA80F84FF000090024EF
:1012500000201549088045F6C0511448FEF7D9FF13
:1012600001A0FFF761FE74E7456E20617474656E3E
:1012700074652064652072A8A663657074696F6EDA
:1012800020646520646F6E6EA8A66573A1ADA1ADE4
:101290000D0A000038140008726563656976696E8E
:1012A000672E2E2E0D0A00000000002040000020B6
:1012B00052A8A663657074696F6E207465726D695B
:1012C0006EA8A665202120446F6E6EA8A6657320C7
:1012D000656E20636F7572732064652076A8A672B0
:1012E000696669636174696F6EA1ADA1AD0D0A0095
:1012F000A1BE657272A1BF2000000000256420001D
:101300002DE9F04100240E250027002649E0294858
:10131000007800F08000002843D0FFF7D9FE044693
:1013200025480068844238D824480068844234D371
:1013300030E02048007800F0800000282AD0FFF735
:10134000C7FE04461E48006884420BD31D4800684F
:10135000844207D8681E012181408E4305B2CDB971
:10136000012718E01848006884420ED31748006827
:1013700084420AD8681E012101FA00F0304386B287
:10138000681E05B235B9012705E0214610A0FFF718
:10139000CBFD00E0CDE700BF04E0214613A0FFF73E
:1013A000C3FDB4E700BF17B13046BDE8F0810020AF
:1013B000FBE700000400002024000020280000209B
:1013C000340000202C0000203800002030000020D5
:1013D000646174614572726F723A68696768566FCA
:1013E0006C54696D653A25640D0A0000737461726E
:1013F000744572726F723A68696768566F6C5469A7
:101400006D653A25640D0A0008B500BF08480068FC
:1014100040F00200064908600846006800F002003B
:10142000009000BF00BF01200249087008BD000005
:10143000403802400C00002043657474652072A897
:10144000A663657074696F6E206120A8A663686FDB
:1014500075A8A6202120566575696C6C657A207286
:10146000656E766F796572206C657320646F6E6E41
:10147000A8A6657320210D0A000000009C14000836
:101480000000002040000000480F0008DC140008A5
:101490004000002098620000580F00080000000083
:1014A000000000000000000000000000000000003C
:1014B000000000000000000000000000000000002C
:1014C000000000000000000000000000000000001C
:0C14D00000000000000000000000000010
:04000005080001C925
:00000001FF
