:020000040800F2
:1000000040040020E1010008F51200081912000860
:10001000F1120008BF040008C3140008000000002B
:10002000000000000000000000000000D9130008DC
:100030002D0500080000000031130008F901000838
:10004000FB010008FB010008FB010008FB010008A0
:10005000FB010008FB010008FB010008FB01000890
:10006000FB010008FB010008FB010008FB01000880
:10007000FB010008FB010008FB010008FB01000870
:10008000FB010008FB010008FB010008FB01000860
:10009000FB010008FB010008FB010008FB01000850
:1000A000FB010008FB010008FB010008FB01000840
:1000B000FB010008FB010008FB010008FB01000830
:1000C000FB010008FB010008FB010008FB01000820
:1000D000FB010008FB010008FB010008FB01000810
:1000E000FB010008FB010008FB010008FB01000800
:1000F000FB010008FB010008FB010008FB010008F0
:10010000FB010008FB010008FB010008FB010008DF
:10011000FB010008FB010008FB010008FB010008CF
:10012000FB010008FB010008FB010008FB010008BF
:10013000FB010008FB010008FB010008FB010008AF
:10014000FB010008FB010008FB010008FB0100089F
:10015000FB010008FB010008FB010008FB0100088F
:10016000FB010008FB010008FB010008FB0100087F
:10017000FB010008FB010008FB0100080000000073
:10018000FB010008FB010008FB010008FB0100085F
:10019000FB010008FB010008FB010008FB0100084F
:1001A000FB010008FB010008FB010008FB0100083F
:1001B000FB010008FB010008FB010008FB0100082F
:1001C000FB010008FB010008DFF810D000F046F941
:1001D000004800477D170008AFF30080400400206E
:1001E0000648804706480047FEE7FEE7FEE7FEE7D1
:1001F000FEE7FEE7FEE7FEE7FEE7FEE7491400083C
:10020000C90100082DE9F04D81EA030404F0004B18
:1002100021F0004514464FF0000A23F0004150EA57
:10022000050220D054EA01021DD0C5F30A57024648
:10023000C5F31303C1F31300C1F30A5640F480154C
:1002400043F48013A7EB0608101BD64608F2FD38CE
:1002500073EB050002D308F1010801E092185B413D
:10026000B8F1000F03DA00200146BDE8F08D002050
:100270004FF48011064684460EE0171B73EB05070A
:1002800005D3121B63EB050306434CEA010C490836
:100290004FEA300092185B4150EA0107EDD152EA73
:1002A000030012D082EA040083EA0501084305D066
:1002B000101BAB4106D20122002306E000224FF0C2
:1002C000004302E06FF0010253101AEB06004CEB02
:1002D000085110EB0A0041EB0B01BDE8F04D00F0B6
:1002E00060B80EB540F2334102910021CDE9001112
:1002F0000A460B4600F064F803B000BD01F000436D
:1003000030B421F0004150EA010206D00A0DA2F5F6
:100310006072C1F31301002A02DC30BC0020704778
:10032000440F44EAC104C100E01830BC00EBC250E5
:10033000AFF300800029A8BF7047401C490008BFE8
:1003400020F00100704710B4B0FA80FC00FA0CF005
:1003500050EA010404BF10BC704749B1CCF120043D
:1003600021FA04F411FA0CF118BF012121430843CA
:10037000A3EB0C01CB1D4FEA00614FEA102042BFF6
:10038000002010BC704700EBC35010440029A4BFEC
:1003900010BC7047401C490008BF20F0010010BC91
:1003A000704710B5141E73F1000408DA401C41F1C7
:1003B000000192185B411A4301D120F0010010BDE9
:1003C0002DE9F04D92469B4611B1B1FA81F202E05F
:1003D000B0FA80F22032904600F052F804460F4600
:1003E00040EA0A0041EA0B0153465A46084313D03B
:1003F000114653EA010019D0C8F14002504600F0FE
:100400004EF805460E4650465946424600F038F82A
:10041000084305D0012004E020463946BDE8F08DB0
:100420000020054346EAE0762C4337430A986305EB
:10043000E40AA0EB08000022FD0A44EA47540A300F
:1004400002D500200146E9E7010510196941DDE9FF
:10045000084500196941BDE8F04DA2E7064C074D7B
:1004600006E0E06840F0010394E807009847103484
:10047000AC42F6D3FFF7ACFEB0170008D017000867
:10048000202A04DB203A00FA02F100207047914054
:10049000C2F1200320FA03F3194390407047202A49
:1004A00004DB203A21FA02F00021704721FA02F31E
:1004B000D040C2F12002914008431946704700BF66
:1004C000FEE7000010B500BF00BF00BF00BF00BFC7
:1004D000BFF34F8F00BF00BF00BF00BF00BF00BF12
:1004E000BFF36F8F00BF00BF00BF00200D49086041
:1004F0000D48006840F400300B49086000BF00BFA1
:1005000000BFBFF34F8F00BF00BF00BF00BF00BFE1
:1005100000BFBFF36F8F00BF00BF00BF00BF00F080
:1005200009FF10BD50EF00E014ED00E0704700003F
:10053000F8B502460B46002100250024002000BF2C
:10054000E4E0012606FA01F51E6806EA0504AC425D
:1005500071D15E68022E02D05E68122E13D1CF08D0
:1005600002F1200656F827004E07F70E0F26BE4070
:10057000B0434F07FF0E1E69BE403043CF0802F163
:10058000200646F8270010684F000326BE40B043FF
:100590001E7906F003064F00BE40304310605E68CF
:1005A000012E08D05E68022E05D05E68112E02D0A2
:1005B0005E68122E13D190684F000326BE40B043F0
:1005C0004F00DE68BE4030439060506801268E4088
:1005D000B0431E79C6F300168E4030435060D06899
:1005E0004F000326BE40B0434F009E68BE403043DC
:1005F000D0605E6806F08056B6F1805FA8D100BF7B
:10060000444E366846F48046424F3E603E46366869
:1006100006F48046009600BF00BF3F4E8F0856F894
:1006200027008E07370F0F26BE40B0433B4EB24225
:1006300002D100262EE068E0394EB24201D10126F7
:1006400028E0384EB24201D1022623E0364EB242B3
:1006500001D103261EE0354EB24201D1042619E035
:10066000334EB24201D1052614E0324EB24201D1DE
:1006700006260FE0304EB24201D107260AE02F4E87
:10068000B24201D1082605E02D4EB24201D1092621
:1006900000E00A268F073F0FBE4030431E4E8F08F2
:1006A00046F82700274E3068A0435E6806F480367F
:1006B000B6F5803F00D12043224E3060361D3068B1
:1006C000A0435E6806F40036B6F5003F00D1204333
:1006D0001C4E361D3060361D3068A0435E6806F43F
:1006E0008016B6F5801F00D12043164E08363060C4
:1006F000361D3068A0435E6806F40016B6F5001F8C
:1007000000D120430F4E0C363060491C1029FFF4F5
:1007100018AFF8BD443802400838014000000240DC
:100720000004024000080240000C02400010024099
:100730000014024000180240001C02400020024049
:1007400000240240003C01400AB1816101E00B0439
:100750008361704701480068704700001400002062
:1007600010B50848006840F400700649086003208E
:1007700000F08AF80F2000F007F800F045F800209C
:1007800010BD0000003C024070B5044600F00CFAB9
:100790004FF47A71B0FBF1F5284600F023FD0022FA
:1007A0002146501E00F031F8002070BD4178154AF6
:1007B00011600178F9B1121D41681160017B0907D0
:1007C000C27A41EA0261827A41EAC241427B41EA4D
:1007D0008241827B41EA4241C27B41EA0241427A44
:1007E00041EA0221027A41EA420102781143054AB4
:1007F0000832116005E00021024A121D1160121D2D
:100800001160704798ED00E070472DE9F05F804679
:100810000D461646002700F06FFD074639462A466A
:10082000334601F00700C0F1070ABAF1040F02D9FC
:100830004FF0040A01E0C0F1070AD14600F1040AB2
:10084000BAF1070F02D24FF0000A01E0A0F1030A4B
:10085000D4464FF0010A0AFA09FAAAF1010A0AEA93
:10086000020A0AFA0CFA4FF0010B0BFA0CFBABF17F
:10087000010B0BEA030B4AEA0B042146404600F049
:1008800043FDBDE8F09F000000BF00F00702064BEB
:1008900019684FF6FF031940044B0B4343EA02214A
:1008A000014B196000BF70470CED00E00000FA0535
:1008B00038B5002400BF2048006840F080501E4931
:1008C00008600846006800F08050009000BF00BF3C
:1008D0001A48006840F4803018490860FFF73AFF72
:1008E000044607E0FFF736FF001BB0F57A7F01D919
:1008F000032038BD1148406800F48030B0F5803FD7
:10090000F0D10E48006840F400300C490860FFF751
:1009100021FF044607E0FFF71DFF001BB0F57A7FBB
:1009200001D90320E5E70548406800F40030B0F540
:10093000003FF0D10020DCE740380240007000406A
:1009400070B504460D4600269548006800F00F007B
:10095000A84271D29248006820F00F0028439049C5
:1009600008600846006800F00F00A84201D001208E
:1009700070BD207800F00200022807D18948006885
:1009800020F0F000A168084386490860207800F054
:10099000010000283BD06068012807D18148083851
:1009A0000068C0F34040A0B90120E1E76068022878
:1009B00007D17C4808380068C0F3406048B901207E
:1009C000D6E7784808380068C0F3400008B901202D
:1009D000CEE77448006820F003006168084371495D
:1009E0000860FFF7B7FE06466068012810D108E0EE
:1009F000FFF7B0FE801B41F28831884201D9032005
:100A0000B6E76848006800F00C000428F0D1A7E0C1
:100A10006068022811D108E0FFF79CFE801B41F2BC
:100A20008831884201D90320A2E75E48006800F0BF
:100A30000C000828F0D193E010E008E0FFF78AFEF0
:100A4000801B41F28831884201D9032090E7554844
:100A5000006800F00C000028F0D181E0207800F060
:100A60000200022807D14F48006820F0F000A1687A
:100A700008434C490860207800F00100002860D04D
:100A80006068012807D1474808380068C0F3404033
:100A9000A0B901206CE76068022807D141480838F6
:100AA0000068C0F3406048B9012061E73D4808385C
:100AB0000068C0F3400008B9012059E739480068D0
:100AC00020F003006168084336490860FFF742FEE2
:100AD00006466068012810D108E0FFF73BFE801B46
:100AE00041F28831884201D9032041E72D4800684E
:100AF00000F00C000428F0D123E06068022810D137
:100B000008E0FFF727FE801B41F28831884201D9B7
:100B100003202DE72348006800F00C000828F0D1DE
:100B20000FE008E0FFF716FE801B41F28831884293
:100B300001D903201CE71B48006800F00C000028C6
:100B4000F0D11748006820F00F00284314490860CE
:100B50000846006800F00F00A84201D0012007E716
:100B6000207800F00400042807D10E48006820F423
:100B7000E050E16808430B490860207800F0080065
:100B8000082808D10748006820F46040216940EA3D
:100B9000C100044908600F20FFF7F6FD0020E7E6DA
:100BA000003C02400838024000B500F019F809493D
:100BB000096801F0F001F02292FAA2F2B2FA82F290
:100BC000D140054A515CC8400449086008460068A5
:100BD00000BD000008380240A017000800000020F7
:100BE00070B50021002200230020274C246804F067
:100BF0000C0424B1042C04D0082C41D103E0234878
:100C000040E023483EE0204C241F246804F03F01CC
:100C10001D4C241F246804F4800484B11C4CB4FBD4
:100C2000F1F5194C241F246847F6C076344096FA33
:100C3000A6F6B6FA86F6F44005FB04F20FE0134C74
:100C4000B4FBF1F5104C241F246847F6C0763440FD
:100C500096FAA6F6B6FA86F6F44005FB04F20A4CBC
:100C6000241F246804F440344FF4403595FAA5F568
:100C7000B5FA85F5EC40641C6300B2FBF3F001E0CB
:100C8000024800BF00BF70BD083802400024F400D5
:100C900040787D0138B504460025207800F0010039
:100CA000002870D0F748006800F00C0004280DD030
:100CB000F448006800F00C00082813D1F148001F28
:100CC000006800F48000B0F5800F0BD1ED480838C3
:100CD0000068C0F340400028E3D06068002852D18B
:100CE000012038BD00BFE7480838006820F4803094
:100CF000E449083908600846006820F4802008604C
:100D00000846006820F48030086000BFFFF722FD2D
:100D1000054607E0FFF71EFD401BB0F5FA7F01D93D
:100D20000320DEE7D74808380068C0F340400028B9
:100D3000F0D100BFD3480838006820F48030D14992
:100D4000083908606068B0F5803F0AD1084600683D
:100D500020F4802008600846006840F48030086075
:100D60001FE06068B0F5A02F0ED1C64808380068B3
:100D700040F48020C349083908600846006840F400
:100D8000803008600DE036E0BE480838006820F486
:100D90008020BC49083908600846006820F480308B
:100DA000086000BF606898B1FFF7D4FC054607E013
:100DB000FFF7D0FC401BB0F5FA7F01D9032090E784
:100DC000B04808380068C0F340400028F0D012E076
:100DD000FFF7C0FC054607E0FFF7BCFC401BB0F581
:100DE000FA7F01D903207CE7A64808380068C0F3E1
:100DF00040400028F0D1207800F00200022873D192
:100E0000A048006800F00C0058B19E48006800F04F
:100E10000C00082821D19B48001F006800F48000C6
:100E2000D8B9984808380068C0F3400020B1E0689D
:100E3000012801D0012054E792480838006820F0CA
:100E4000F800F82292FAA2F2B2FA82F221699140F5
:100E500008438C490839086046E0E06850B3894887
:100E60000838006840F00100864908390860FFF73B
:100E700071FC054606E0FFF76DFC401B642801D9B4
:100E800003202EE77F4808380068C0F340000028A0
:100E9000F1D07C480838006820F0F800F82292FA77
:100EA000A2F2B2FA82F221699140084375490839E9
:100EB000086019E073480838006820F001007149A3
:100EC00008390860FFF746FC054606E0FFF742FCDC
:100ED000401B642801D9032003E76A4808380068EA
:100EE000C0F340000028F1D1207800F00800082865
:100EF00036D16069D0B163486C30006840F00100C1
:100F000060496C310860FFF725FC054606E0FFF7F5
:100F100021FC401B642801D90320E2E659486C30CB
:100F20000068C0F340000028F1D019E055486C304B
:100F3000006820F0010053496C310860FFF70AFC9B
:100F4000054606E0FFF706FC401B642801D9032094
:100F5000C7E64C486C300068C0F340000028F1D16F
:100F6000207800F00400042876D100BF45483830CE
:100F7000006840F0805043493831086008460068F6
:100F800000F08050009000BF00BF3F48006840F470
:100F900080703D490860FFF7DDFB054606E0FFF77E
:100FA000D9FB401B642801D903209AE63648006823
:100FB00000F480700028F2D000BF3248683000682A
:100FC00020F001002F49683108600846006820F0D1
:100FD000040008600846006820F00100086000BFB7
:100FE000FFF7B8FB054608E0FFF7B4FB401B41F2F2
:100FF0008831884201D9032073E6224868300068AE
:10100000C0F340000028EFD100BF1E4868300068E0
:1010100020F001001B4968310860A06801280AD14E
:101020000846006820F0040008600846006840F0A8
:10103000010008601EE0A06805280ED11148683044
:10104000006840F004000F496831086008460068F5
:1010500040F0010008600DE03BE00A48683000689D
:1010600020F004000749683108600846006820F055
:101070000100086000BFA068C0B1FFF76BFB054628
:101080000DE000000838024000700040FFF762FBEE
:10109000401B41F28831884201D9032021E65048A3
:1010A0000068C0F340000028F0D012E0FFF752FBC8
:1010B000054608E0FFF74EFB401B41F288318842AD
:1010C00001D903200DE646480068C0F3400000281F
:1010D000F0D1A069F0B342486838006800F00C0015
:1010E000082879D0A06902285AD13D487038006894
:1010F00020F080703A4970390860FFF72BFB0546F5
:1011000006E0FFF727FB401B642801D90320E8E530
:10111000334870380068C0F340600028F1D1206A7D
:1011200040F0005047F6C07292FAA2F2B2FA82F290
:10113000616A914008430122A16AC2EB51014FF458
:10114000403292FAA2F2B2FA82F291400843E16987
:10115000084300E042E04FF0706292FAA2F2B2FA65
:1011600082F2E16A914008431D496C390860081F0A
:10117000006840F08070091F0860FFF7EBFA054631
:1011800006E0FFF7E7FA401B642801D90320A8E531
:10119000134870380068C0F340600028F1D01DE0AB
:1011A0000F487038006820F080700D497039086071
:1011B000FFF7D0FA054607E0FFF7CCFA401B64289A
:1011C00002D903208DE507E0054870380068C0F3B8
:1011D00040600028F0D101E0012082E5002080E598
:1011E0007038024070B504462546681EB0F1807F15
:1011F00001D301200FE0681E4FF0E02148610F216C
:101200004FF0FF3000F080F800204FF0E0218861BF
:1012100007200861002070BD00BFFEE700B587B061
:1012200000BF1048006840F480700E49086008460E
:10123000006800F48070019000BF00BF042002909D
:1012400001200390022005900120049002A9064885
:10125000FFF76EF9002204210348FFF775FA07B083
:1012600000BD000030380240002002401FB500BF22
:101270001D48006820F480301B4908601A4870300F
:10128000006820F0010018497031086000BF01209B
:101290008DF800001548019011208DF808000320FA
:1012A0008DF80B0000208DF80F0001208DF80E0046
:1012B00000208DF80D008DF801008DF80A008DF8E2
:1012C00009008DF80C006846FFF770FA042040F022
:1012D0000101054A703211600349096841F4803107
:1012E000014A116000BF1FBD24ED00E00000012095
:1012F00000BFFEE77047000002480068C0F302200C
:10130000704700000CED00E010B5002807DA0A076E
:10131000140E054A00F00F031B1FD45403E00A0704
:10132000130E024A135410BD18ED00E000E400E073
:1013300070470000F0B50024254F3C603C1F20683A
:10134000C0F34E3200F00704251DC0F3C903B3FA01
:1013500083F404F01F0600BF00BF00BFBFF34F8F30
:1013600000BF00BF00BF00BF1C4600BF04FA06F765
:1013700002FA05FC47EA0C01164F3960271EA4F15A
:101380000104F3D1141EA2F10102EDD100BF00BF90
:1013900000BFBFF34F8F00BF00BF00BF0C4C703CBD
:1013A000246844F480340A4F703F3C6000BF00BFA3
:1013B00000BFBFF34F8F00BF00BF00BF00BF00BF23
:1013C00000BFBFF36F8F00BF00BF00BFF0BD0000C4
:1013D00084ED00E060EF00E0704730B591B0054665
:1013E0000024012000900004019002200690410595
:1013F000079108954FF4D871099102210A910921AA
:101400000B916846FFF746FC04460CB100BFFEE7AF
:10141000FFF74EFA04460CB100BFFEE70F200C9018
:1014200002200D9000200E904FF4A0500F904FF42A
:101430008050109007210CA8FFF782FA04460CB1E7
:1014400000BFFEE711B030BD1448006840F47000E2
:10145000124908601248006840F001001049086015
:1014600000200F49083108600D4800680D49084008
:101470000B4908600C48091D0860081F006820F42B
:101480008020091F0860002005490C3108604FF0DA
:1014900000600249803908607047000088ED00E074
:1014A00000380240FFFFF6FE1030002410B5FFF7B1
:1014B000DDFEFFF707F8FFF753F91920FFF78DFF5F
:1014C00010BD00BFFEE702E008C8121F08C1002AD5
:1014D000FAD170477047002001E001C1121F002AB5
:1014E000FBD1704730B50446002504E04FF47A7014
:1014F00000F004F86D1CA542F8D330BD002105E0D2
:10150000002200E0521C6E2AFCD3491C8142F7D312
:10151000704770B5054600F017F90E240DE0601E07
:10152000012101FA00F000EA050616B100F022F8E8
:1015300001E000F005F8601EC4B2002CEFDC70BDC5
:1015400010B5012204210848FFF7FEF8074800689B
:1015500000F02AF8002204210348FFF7F5F80448B8
:10156000006800F021F810BD00200240200000209B
:101570002400002010B5012204210848FFF7E4F8F8
:101580000748006800F010F8002204210348FFF724
:10159000DBF80448006800F007F810BD00200240A6
:1015A000280000202C00002070B52DED048B04468F
:1015B00045F6D810844203D82046FFF79FFF88E005
:1015C00045F6D81084423AD94348844237D220465F
:1015D000FEF787FE41EC190B9FED400B53EC102BEF
:1015E000FEF710FE41EC180BFEF788FE3D494860FF
:1015F000084690ED010ABDEEC00A10EE100A88817F
:101600000846D0ED010A808900EE100AB8EE400AC3
:1016100030EEC00ADFED340A20EE200ABCEEC00A2C
:1016200010EE100A08818889FFF75CFF2D480089B9
:1016300000284ED02B490889FFF760FF49E0264873
:10164000844246D32046FEF74CFE41EC190B9FED39
:10165000270B53EC102BFEF7D5FD41EC180BFEF7D2
:101660004DFE20490860084690ED000ABDEEC00A14
:1016700010EE100A88720846D0ED000A807A00EE5B
:10168000100AB8EE400A30EEC00ADFED170A20EE6D
:10169000200A084680ED010A002505E04FF47A7023
:1016A000FFF720FF681CC5B20E48807AA842F5DC1F
:1016B0000C4890ED010AB5EEC00AF1EE10FA08D020
:1016C000014691ED010ABCEEC00A10EE100AFFF7C8
:1016D00009FFBDEC048B70BD40420F00000000000C
:1016E00000408F403000002000007A4400000000DD
:1016F00080842E412DE9F04104460D46681C87B2D6
:10170000002C1DDDA5421BDD2046FFF702FF284609
:10171000FFF7FFFE691C091B88B2FFF7FAFE0A20DB
:10172000FFF7E0FE264604E03046FFF7F2FE701CAD
:1017300086B2BE42F8DB012204210248FFF704F81A
:10174000BDE8F0810020024010B5012204210848C4
:10175000FEF7FAFF07480068FFF726FF0022042182
:101760000348FEF7F1FF04480068FFF71DFF10BDB6
:1017700000200240180000201C000020FFF796FE09
:10178000FFF74CFD012204210448FEF7DDFF03E0D2
:1017900064210120FFF7AEFFFAE7000000200240BD
:1017A0000000000001020304010203040607080907
:1017B000D01700080000002030000000C614000808
:1017C000001800083000002010040000D6140008A3
:1017D0000024F400000000000000000001020304E7
:1017E0000607080900000000580200002C01000054
:1017F000200300002C010000E80300002C01000081
:04000005080001C925
:00000001FF
